:020000040800F2
:10000000484D002099010008A903000831030008A9
:10001000A50300080D0200087D090008000000008B
:1000200000000000000000000000000001010008C6
:100030001102000800000000450100088D140008AE
:10004000B3010008B3010008B3010008B3010008C0
:10005000B3010008B3010008B3010008B3010008B0
:10006000B3010008B3010008B3010008B3010008A0
:10007000B3010008B3010008B3010008B301000890
:10008000B3010008B3010008B3010008B301000880
:10009000B3010008B3010008B3010008B301000870
:1000A000B3010008B3010008B3010008B301000860
:1000B000B3010008B3010008B3010008B301000850
:1000C000B3010008B3010008B3010008B301000840
:1000D000B301000829070008B3010008B3010008B4
:1000E000B3010008B3010008B3010008DFF80CD029
:1000F00000F07AF800480047B90B0008484D00208E
:10010000224B19680868B0E8F00F80F30988BFF344
:100110006F8F4FF0000080F311884EF00D0E704786
:100120000000000006480068006880F3088862B696
:1001300061B6BFF34F8FBFF36F8F00DF00BF00BF0B
:1001400008ED00E0EFF30980BFF36F8F0F4B1A68E3
:1001500020E9F00F106008B54FF0BF0080F3118860
:10016000BFF34F8FBFF36F8F01F046F94FF00000E0
:1001700080F31188BDE8084019680868B0E8F00FFE
:1001800080F30988BFF36F8F704700BF2000002005
:10019000EFF3058070470000064880470648004797
:1001A000FEE7FEE7FEE7FEE7FEE7FEE7FEE7FEE727
:1001B000FEE7FEE735060008ED00000830B50B4607
:1001C000014600202022012409E021FA02F59D4287
:1001D00005D303FA02F5491B04FA02F52844151E5B
:1001E000A2F10102F1DC30BD064C074D06E0E068EB
:1001F00040F0010394E8070098471034AC42F6D36E
:10020000FFF778FF241700084417000800BFFEE737
:1002100070472DE9F041024600250026002000230A
:100220000024002791F803C00CF00F0591F803C0DB
:100230000CF0100CBCF1000F03D091F802C04CEA96
:10024000050591F800C0BCF1000F31D01468002002
:100250002BE04FF0010C0CFA00F3B1F800C00CEAEF
:1002600003069E4220D183004FF00F0C0CFA03F7D7
:10027000BC4305FA03FC4CEA040491F803C0BCF14A
:10028000280F06D14FF0010C0CFA00FCC2F814C084
:100290000AE091F803C0BCF1480F05D14FF0010C02
:1002A0000CFA00FCC2F810C0401C0828D1D314601E
:1002B000B1F800C0BCF1FF0F34DD546800202EE01F
:1002C00000F1080C4FF0010808FA0CF3B1F800C077
:1002D0000CEA03069E4221D183004FF00F0C0CFA6A
:1002E00003F7BC4305FA03FC4CEA040491F803C08D
:1002F000BCF1280F05D100F1080C08FA0CF8C2F87F
:10030000148091F803C0BCF1480F07D100F1080C2C
:100310004FF0010808FA0CF8C2F81080401C0828B9
:10032000CED35460BDE8F0814161704701617047F0
:1003300000BFFEE708B50121042000F08DF802207F
:10034000ADF8000010208DF8030003208DF80200A6
:1003500069460948FFF75DFF4FF48070ADF8000073
:1003600004208DF8030069460348FFF752FF02217D
:100370000148FFF7DBFF08BD0008014010B502216E
:100380000748FFF7D1FF4FF4FA7000F0F5FB0221A8
:100390000348FFF7CBFF4FF4FA7000F0EDFB10BD00
:1003A0000008014000BFFEE77047000070B5002163
:1003B00000230F22C47804B3154C246804F4E064CD
:1003C000C4F5E064210AC1F10403CA40447804FA88
:1003D00003F184781440214309010E4C0678A1559D
:1003E000047804F01F050124AC4005786D11AD00C0
:1003F00005F1E025C5F8004109E0047804F01F0587
:100400000124AC40044D0678761145F8264070BDB5
:100410000CED00E000E400E080E100E0024901436F
:10042000024A1160704700000000FA050CED00E080
:1004300008B54FF4E060FFF7F1FF25208DF80000CC
:1004400000208DF801008DF8020001208DF80300D6
:100450006846FFF7ABFF08BD29B1064A926902431F
:10046000044B9A6104E0034A92698243014B9A610A
:10047000704700000010024030B500210022002427
:1004800000232D4D6D6805F00C0121B1042905D024
:10049000082923D105E0294D056022E0274D05609C
:1004A0001FE0254D6D6805F47012234D6D6805F44D
:1004B0008034022505EB92421CB9214D554305605D
:1004C0000BE01D4D6D6805F400351DB11C4D554305
:1004D000056002E0194D5543056002E0174D0560C7
:1004E00000BF00BF144D6D6805F0F0010909154DFE
:1004F0006B5C0568DD4045600F4D6D6805F4E0619B
:10050000090A104D6B5C4568DD4085600A4D6D68D9
:1005100005F46051C90A0B4D6B5C4568DD40C56050
:10052000054D6D6805F44041890B074D6B5CC5684E
:10053000B5FBF3F5056130BD0010024000127A00F2
:1005400000093D000C0000201C00002010B500F048
:1005500001F810BD0CB500200190009033480068F0
:1005600040F480303149086000BF3048006800F432
:10057000003000900198401C0190009818B9019833
:10058000B0F5A06FF1D12948006800F4003010B137
:100590000120009001E0002000900098012843D144
:1005A0002348006840F010002149086008460068B0
:1005B00020F0030008600846006840F00200086070
:1005C0001A4840681949486008464068486008462B
:1005D000406840F4806048600846406820F47C1021
:1005E00048600846406840F4E810486008460068E3
:1005F00040F08070086000BF0C48006800F0007098
:100600000028F9D00948406820F0030007494860F5
:100610000846406840F00200486000BF0348406858
:1006200000F00C000828F9D10CBD000000100240B9
:100630000020024010B51348006840F00100114945
:10064000086008464068104908400E49486008465E
:1006500000680E4908400B4908600846006820F40D
:10066000802008600846406820F4FE0048604FF48F
:100670001F008860FFF76AFF4FF0006004490860C0
:1006800010BD0000001002400000FFF8FFFFF6FE62
:1006900008ED00E010B586B00446012144F20400E4
:1006A000FFF7DAFE4FF40070ADF8140018208DF853
:1006B000170003208DF8160005A91948FFF7A9FDBA
:1006C0004FF48060ADF8140004208DF8170005A9E0
:1006D0001348FFF79EFD01940020ADF80800ADF827
:1006E0000A00ADF80C00ADF810000C20ADF80E00BB
:1006F00001A90C4800F0D2F8012240F22551094826
:1007000000F0A6F8012240F22441064800F0A0F8CB
:100710000121044800F059F8FFF78AFE06B010BD29
:10072000000801400038014010B500BF40211748C3
:1007300000F042F840F22551144800F05FF860B133
:100740001248001D0088C1B2114802680068401CB0
:100750000F4B18600F48815417E010210B4800F030
:1007600040F890B109480088C4B20848001D0088CC
:10077000C4B20748016808A000F002F905490CA0BE
:1007800000F0FEF800200249086010BD003801406A
:100790007800002048450020526563656976652031
:1007A000446F6E652053697A653A25640D0A00002E
:1007B00025730D0A0000000001F40072B2F5007FFD
:1007C00000D100BFCA430280704721B1828942F440
:1007D0000052828104E082894DF6FF731A408281C3
:1007E000704702460020B1F5007F00D100BF13889A
:1007F0000B400BB1012000E00020704770B50246AD
:10080000002400230025002040F66A16B14200D1E2
:1008100000BFC1F3421501F01F03012606FA03F3DE
:10082000012D02D19689334006E0022D02D1168AAD
:10083000334001E0968A33400C12012606FA04F494
:100840001688344013B10CB1012000E0002070BDC7
:10085000F0B50346002400260025002040F66A1764
:10086000B94200D100BF1846C1F3421401F01F067F
:10087000012707FA06F5012C01D10C3004E0022C07
:1008800001D1103000E014301AB107682F4307601F
:1008900002E00768AF430760F0BD00002DE9F047B4
:1008A00086B005460E460024A24600BFA14600279A
:1008B000B08900B100BF2F462C8A4CF6FF7004406F
:1008C000F08804432C82AC894EF6F3100440B088C3
:1008D00031890843718908430443AC81AC8A4FF6DF
:1008E000FF400440B0890443AC8201A8FFF7C4FD77
:1008F0001F48874202D1DDF810A001E0DDF80CA00E
:10090000A88900F4004040B10AEBCA0000EB0A10CD
:1009100031684900B0FBF1F807E00AEBCA0000EBD0
:100920000A1031688900B0FBF1F86420B8FBF0F0E0
:1009300004012009642101FB1089A88900F400400A
:1009400040B1322000EBC900B0FBF1F000F007002D
:10095000044308E0322000EB09106421B0FBF1F001
:1009600000F00F0004432C8106B0BDE8F0870000C2
:1009700000380140C1F308028280704700BFFEE7E3
:100980000FB4054B10B503A9044A029800F018F8FB
:1009900010BC5DF814FB0000850B00087C000020F3
:1009A00002E008C8121F08C1002AFAD17047704738
:1009B000002001E001C1121F002AFBD17047000096
:1009C0002DE9FF4F8BB09A460F460546002606E0FC
:1009D00025280BD052460D9990476D1C761C28781F
:1009E0000028F5D10FB03046BDE8F08F0024A046B6
:1009F0000122604900E0044315F8013F203B02FA60
:100A000003F00842F7D128782E2817D115F8010FE6
:100A100044F004042A280ED06FF02F022878A0F1A9
:100A2000300109290AD808EB880102EB410100EBEB
:100A300001086D1CF2E757F8048B6D1C28786928B3
:100A40003ED006DC0028CDD063280BD0642804D12A
:100A500036E0732810D075284BD052460D99904738
:100A6000761C85E017F8040B8DF8000000208DF847
:100A70000100E946012003E057F8049B4FF0FF30E6
:100A800061074FF0000401D40AE0641C44450DDA0C
:100A90008442FADB19F804100029F6D106E0641C40
:100AA0008442FCDB19F804100029F8D1264404E044
:100AB00019F8010B52460D999047641EF8D257E081
:100AC00001CF4FF00A0B002802DA40422D2102E04C
:100AD000210504D52B218DF82410012103E0E10725
:100AE00005D02021F7E70DF1200908910CE0002145
:100AF000F9E701CF4FF00A0BF9E75946FFF75EFB24
:100B000001F1300209F8012D0028F6D1ADEB090002
:100B100000F1200B600701D44FF00108D84502DD39
:100B2000A8EB0B0000E000208046002406E009A8A6
:100B30005246005D0D999047641C761C08988442CB
:100B4000F5DB04E0302052460D999047761CB8F151
:100B50000001A8F10108F5DC05E019F8010B524687
:100B60000D999047761CBBF10001ABF1010BF4DC51
:100B70006D1C34E70928010010B50446204600F03A
:100B800081FB10BD70B504460D4607480088E1B2F0
:100B90000548FFF7EFFE00BF40210348FFF721FEA5
:100BA0000028F9D0204670BD00380140FFF7C2FB95
:100BB00001E0FFF7E3FBFCE71CB507480121002338
:100BC0008022CDE9001005A1074800F079FC00F073
:100BD000D9FB00201CBD000000000020737461726E
:100BE000745F7461736B0000D51000082DE9F0414B
:100BF00005460E461C4807681C480068001D00F0AA
:100C0000A5FA50B91948006890F82C1001208840C6
:100C100017490968814316480160681C38B936B124
:100C200012480168091D134800F0CEFA1AE07C1939
:100C30000E4800684460BC4207D20C480168091D98
:100C40000D48006800F0A6FA0CE008480168091D8C
:100C50000A48006800F09EFA09480068844201D200
:100C600007480460BDE8F081340000202000002027
:100C7000380000203401002028000020240000203B
:100C80005000002010B5044600F0AAFA234800687E
:100C9000401C224908602248006840B9204804608E
:100CA0000846006801280DD100F00CF90AE01D4843
:100CB000006838B91A480068C06AE16A884201D8F9
:100CC0001748046018480068401C1749086094F8E9
:100CD0002C10012088401549096808431349086011
:100CE000E16A01EB8101124A02EB8100211D00F053
:100CF0006BFA00F087FA0B48006868B10848006892
:100D0000C06AE16A884207D24FF080500949086002
:100D1000BFF34F8FBFF36F8F10BD00003000002076
:100D2000200000203C0000204C0000203800002063
:100D30008000002004ED00E010B516E000F050FA4D
:100D40000C48C068C468201D00F000FA0A4800681A
:100D5000401E0949086009480068401E07490860AC
:100D600000F050FA204600F00BF804480068002814
:100D7000E4D110BD20010020300000202C00002014
:100D800010B50446206B00F04DFA204600F04AFAF8
:100D900010BD000030B54FF48843174800F0070439
:100DA0002CB1C01D20F00700134C041B1B1B024676
:100DB000124C22600024114D6C60D018083820F0CD
:100DC00007000F4C206000240D4D2D686C600C4D09
:100DD0002D682C601146441A4C60094C24680C6044
:100DE000084D4C682C60084D4C682C604FF0004456
:100DF000064D2C6030BD000048010020600000203E
:100E000068000020700000206C00002074000020AA
:100E100000BFFFF791FF064800680128F9D94FF09D
:100E2000805004490860BFF34F8FBFF36F8FF0E726
:100E30008000002004ED00E02DE9FF5F80460E46B3
:100E40009146DDE90E7A109CA9F10100216B01EBBE
:100E5000800B2BF0070B86B1002507E0715D04F1D4
:100E600034004155705D00B902E06D1C102DF5D3C2
:100E700000BF00214320015502E0002084F8340027
:100E8000052F00D30427E762201D00F080F904F14C
:100E9000180000F07CF92461C7F10500A0616462CC
:100EA0000020606484F8480041465846039A00F0E8
:100EB000FFF82060BAF1000F01D0CAF80040BDE889
:100EC000FF9F000010B5002407E004EB84010F4AE7
:100ED00002EB810000F04EF9641C052CF5D30C48A0
:100EE00000F048F90B4800F045F90B4800F042F9D2
:100EF0000A4800F03FF90A4800F03CF90448094963
:100F0000086004480849086010BD00008000002007
:100F1000E4000020F80000200C0100202001002047
:100F200034010020240000202800002010B50146D4
:100F3000164800E0006803688B42FBD30246436812
:100F400013448B4204D143684C68234443600146F8
:100F50000A464B6813440468A34211D10C4C036841
:100F60002468A34208D04B680468646823444B603B
:100F700003681B680B6005E0054B1B680B6001E014
:100F800003680B60884200D0016010BD6000002043
:100F9000680000200A490968096809B9012100E0D0
:100FA000002121B14FF0FF31064A116006E00449EB
:100FB0000968C968C868034A416811607047000041
:100FC000240000205000002000BFBF2080F31188C3
:100FD000BFF34F8FBFF36F8F00BF00BFFEE700006E
:100FE0002DE9F04105464FF0000800F0FDF92B48CF
:100FF000006808B9FFF7CEFE29480068284000289D
:1010000047D145B1083505F0070020B105F00700CC
:10101000C0F108000544002D3BD0224800688542FD
:1010200037D8214E3046046801E0264624686068BF
:10103000A84202D220680028F7D1184800688442EC
:1010400027D0306800F10808206830606068401BD5
:10105000102807D967196068401B786065603846BA
:10106000FFF764FF0F4960680968081A0D490860B6
:10107000084600680D490968884203D2094800689B
:101080000A490860064960680968084360600020F2
:10109000206000F0D3FA4046BDE8F08168000020EF
:1010A000740000206C000020600000207000002010
:1010B000001F4FF080730360001F21F001030360E5
:1010C000001F034B03601438026020387047000093
:1010D000C90F00081CB5044600F082F80D48022133
:1010E00000233222CDE900100BA10E4800F0E8F9F0
:1010F0000D48032100233222CDE900100BA10E4838
:1011000000F0DEF90D48006800F0D6F800F07AF83B
:101110001CBD00000400002075736172745F74616F
:10112000736B000041110008080000206C65645FCB
:101130007461736B00000000AD0B0008000000201C
:101140004FF4E130FFF7A6FA00BFFEE701460A6957
:10115000D1E901309860D1E90103586050688842B4
:1011600001D188685060002008611068401E10603E
:101170001068704700F1080141604FF0FF31816055
:1011800000F10801C1600161002101607047002188
:101190000161704710B502460B685C1C0CB9106900
:1011A00007E002F1080000E04068446824689C42BF
:1011B000FAD944684C604C68A160886041600A615B
:1011C0001468641C146010BD42684A6093688B60A8
:1011D000936859609160086103685B1C0360704705
:1011E00000BFBF2080F31188BFF34F8FBFF36F8F15
:1011F00000BF03480068401C0149086070470000B8
:101200005C00002006480068401E0549086008464A
:10121000006820B9002080F3118800BF00BF70472C
:101220005C00002070B506463546D6B1083D2C4618
:101230000C4960680968084098B1206888B9094974
:10124000606809688843606000F0CEF8064960680D
:1012500009680844044908602046FFF767FE00F06B
:10126000EDF970BD740000206C00002000204FF0EC
:10127000E0210861886102484861072008617047E1
:101280003F19010070B50446002544B100F0ACF8E8
:1012900000212046FFF7AAFC00F0D0F905463DB931
:1012A0004FF0805003490860BFF34F8FBFF36F8F3B
:1012B00070BD000004ED00E070B50546FFF790FF3B
:1012C00015B92748006800E028460446201DFFF7AE
:1012D0003DFF78B9E06A00EB8000224951F8200018
:1012E00040B994F82C10012088401F4909688143B7
:1012F0001D480160A06A18B104F11800FFF726FF2D
:101300001A480068401C1949086015480068844262
:1013100009D1211D1648FFF757FF16480068401CE9
:101320001449086009E014480068401E124908602A
:101330002046FFF725FDFFF72DFEFFF763FF0F485F
:10134000006858B106480068844207D14FF08050C9
:101350000B490860BFF34F8FBFF36F8F70BD000064
:101360002000002080000020380000204C000020D9
:10137000200100202C000020300000203C00002034
:1013800004ED00E01CB5114800210B468022CDE998
:1013900000100FA1104800F093F80446012C14D15E
:1013A00000BFBF2080F31188BFF34F8FBFF36F8F53
:1013B00000BF4FF0FF30094908600120084908606C
:1013C00000200849086000F047F81CBD54000020C8
:1013D00049444C4500000000110E00085000002058
:1013E0003C0000203400002002480068401C0149F5
:1013F00008607047580000201248006818B10120AA
:10140000114908601DE000200F4908600F4800687E
:10141000B0FA80F0C0F11F0101EB81020C4B03EB2D
:10142000820042685268426000F1080243689342B9
:1014300002D14268526842604268D268054B1A6025
:1014400000BF7047580000204400002038000020F2
:10145000800000202000002010B50A48006840F4F9
:101460007F00084908600846006840F07F40086037
:10147000FFF7FCFE002004490860FEF753FE002041
:1014800010BD000020ED00E05C00002010B500BFA2
:10149000BF2080F31188BFF34F8FBFF36F8F00BF62
:1014A00000F03EF818B14FF080500449086000BFCA
:1014B000002080F3118800BF10BD000004ED00E0A3
:1014C0002DE9FF4F85B0804689461746DDE912AB0E
:1014D000B800FFF785FD064656B14C20FFF780FDAA
:1014E00004460CB1266304E03046FFF79BFE00E0A3
:1014F00000247CB10020CDE900ABCDE902403A46A2
:1015000049464046089BFFF797FC2046FFF7BAFB89
:10151000012501E04FF0FF35284609B0BDE8F08F06
:101520002DE9F04100273A480068002863D1394886
:101530000068451C374805608DB93748D0F80080F1
:1015400036480068344908603448C0F800803448A0
:101550000068401C32490860FFF71CFD00BF31489D
:10156000006885423BD300BF2B480068006808B97B
:10157000012000E0002020B14FF0FF302949086031
:101580002CE025480068C068C4686668B54202D28D
:101590002448066022E0201DFFF7D8FDA06A18B19C
:1015A00004F11800FFF7D2FD94F82C1001208840B8
:1015B0001D49096808431C490860E16A01EB810183
:1015C0001A4A02EB8100211DFFF7FEFD1849E06A6F
:1015D0000968C96A8842C7D30127C5E700BF144814
:1015E0000068C06A00EB8000104951F82000012813
:1015F00000D9012704E00F480068401C0D4908602D
:101600000D48006800B101273846BDE8F0810000B0
:101610005800002034000020240000202800002072
:1016200048000020500000203800002080000020EA
:1016300020000020400000204400002070B500245D
:101640000026FFF7CDFD2E480068401E2C4908609B
:101650000846006800284FD12A48006800284BD06F
:1016600024E02948C068C46804F11800FFF76EFD43
:10167000201DFFF76BFD94F82C10012088402349B2
:101680000968084321490860E16A01EB8101204AA9
:1016900002EB8100211DFFF797FD1E49E06A0968F2
:1016A000C96A884202D301201B49086016480068B5
:1016B00008B9012000E000200028D2D00CB1FFF7CB
:1016C00069FC1648056865B100BFFFF729FF10B136
:1016D0000120114908606D1E002DF6D100200F4930
:1016E00008600D48006838B1012630070C490860D1
:1016F000BFF34F8FBFF36F8FFFF784FD304670BD90
:1017000058000020300000200C010020380000208C
:101710008000002020000020440000204000002025
:1017200004ED00E0441700080000002080000000E5
:10173000A0090008C417000880000020C84C000061
:10174000B0090008000000000000000000000000D8
:101750000000000001020304010203040607080957
:101760000204060800000000000000000000000065
:101770000000000000000000000000000000000069
:101780000000000000000000000000000000000059
:101790000000000000000000000000000000000049
:1017A000AAAAAAAA00000000000000000000000091
:1017B0000000000000000000000000000000000029
:0417C0000000000025
:04000005080000ED02
:00000001FF
